:020000040800F2
:10000000B8500024F90300089F260008DF250008E7
:100010009D2600084B0600087D2B0008000000000C
:10002000000000000000000000000000390300088C
:100030004D0600080000000095030008E9280008AC
:100040001704000817040008170400081704000824
:100050001704000817040008170400081704000814
:100060001704000817040008170400081704000804
:1000700017040008170400081704000817040008F4
:1000800017040008170400081704000817040008E4
:1000900017040008170400081704000817040008D4
:1000A00017040008170400081704000817040008C4
:1000B00017040008170400081704000817040008B4
:1000C00017040008170400081704000817040008A4
:1000D0001704000817040008170400081704000894
:1000E00017040008170400080000000017040008A7
:1000F0001704000817040008170400081704000874
:100100001704000817040008170400081704000863
:100110001704000817040008A52A0008170400089F
:100120001704000817040008170400081704000843
:100130001704000817040008170400081704000833
:1001400000000000000000000000000000000000AF
:100150001704000817040008170400081704000813
:100160001704000817040008170400081704000803
:100170001704000817040008170400080000000016
:1001800017040008170400081704000817040008E3
:1001900017040008170400081704000817040008D3
:1001A00017040008170400081704000817040008C3
:1001B00017040008170400081704000817040008B3
:1001C00017040008170400081704000817040008A3
:1001D0001704000817040008170400081704000893
:1001E0001704000817040008170400081704000883
:1001F0001704000817040008170400081704000873
:100200001704000817040008170400081704000862
:100210001704000817040008170400081704000852
:100220001704000817040008170400080000000065
:100230001704000817040008000000001704000855
:100240001704000817040008170400081704000822
:100250001704000817040008170400081704000812
:100260001704000817040008170400081704000802
:100270001704000817040008170400080000000015
:100280001704000817040008170400080000000005
:10029000000000001704000800F002F800F03CF82D
:1002A0000AA090E8000C82448344AAF10107DA45D1
:1002B00001D100F031F8AFF2090EBAE80F0013F0E7
:1002C000010F18BFFB1A43F001031847D441000087
:1002D000F4410000103A24BF78C878C1FAD8520718
:1002E00024BF30C830C144BF04680C6070470000B0
:1002F0000023002400250026103A28BF78C1FBD82F
:10030000520728BF30C148BF0B6070471FB504F0CB
:1003100073F81FBD10B510BD00F05DF91146FFF771
:10032000F5FF02F03DFC00F07BF903B4FFF7F2FFAC
:1003300003BC00F083F900002C4B19680868B0E892
:10034000F04F80F30988BFF36F8F4FF0000080F308
:10035000118870470000000008480068006880F3BA
:1003600008884FF0000080F3148862B661B6BFF3CE
:100370004F8FBFF36F8F00DF00BF00BF08ED00E0BD
:10038000DFF80C00016841F470010160704700BFA4
:1003900088ED00E0EFF30980BFF36F8F134B1A680D
:1003A0001EF0100F08BF20ED108A20E9F04F1060FA
:1003B00009B44FF0500080F31188BFF34F8FBFF3A3
:1003C0006F8F03F0E3FA4FF0000080F3118809BC4F
:1003D00019680868B0E8F04F1EF0100F08BFB0ECC5
:1003E000108A80F30988BFF36F8F704718000024CC
:1003F000EFF30580704700000A4880470A488047AD
:100400000A480047FEE7FEE7FEE7FEE7FEE7FEE7F5
:10041000FEE7FEE7FEE7FEE705480649064A074B0A
:100420007047000055060008AD2900089902000831
:10043000B84A0024B8500024B84C0024B84C00241A
:10044000032A40F2308010F0030C00F0158011F800
:10045000013BBCF1020F624498BF11F801CB00F8D8
:10046000013B38BF11F8013BA2F1040298BF00F82C
:1004700001CB38BF00F8013B11F0030300F02580E9
:10048000083AC0F0088051F8043B083A51F804CB10
:10049000A0E80810F5E7121D5CBF51F8043B40F8D6
:1004A000043BAFF30080D20724BF11F8013B11F8E1
:1004B00001CB48BF11F8012B24BF00F8013B00F825
:1004C00001CB48BF00F8012B704710B5203AC0F0AF
:1004D0000B80B1E81850203AA0E81850B1E8185045
:1004E000A0E81850BFF4F5AF5FEA027C24BFB1E882
:1004F0001850A0E8185044BF18C918C0BDE81040F3
:100500005FEA827C24BF51F8043B40F8043B08BFFB
:100510007047D20728BF31F8023B48BF11F8012BC2
:1005200028BF20F8023B48BF00F8012B704702F0BB
:10053000FF0343EA032242EA024200F02CB84FF0E4
:10054000000200B5134694469646203922BFA0E823
:100550000C50A0E80C50B1F12001BFF4F7AF09072F
:1005600028BFA0E80C5048BF0CC05DF804EB890020
:1005700028BF40F8042B08BF704748BF20F8022B63
:1005800011F0804F18BF00F8012B7047704770477B
:1005900070474FF000020429C0F0128010F0030CE5
:1005A0003FF4CFAFCCF1040CBCF1020F18BF00F840
:1005B000012BA8BF20F8022BA1EB0C01FFF7C1BF54
:1005C0005FEAC17C24BF00F8012B00F8012B48BF73
:1005D00000F8012B7047754600F02CF8AE46050078
:1005E0006946534620F00700854618B020B5FFF74E
:1005F00013FFBDE820404FF000064FF000074FF01A
:1006000000084FF0000B21F00701AC46ACE8C00930
:10061000ACE8C009ACE8C009ACE8C0098D46704739
:1006200010B50446AFF300802046BDE81040FFF748
:100630007CBE000000487047584A00240149182039
:10064000ABBEFEE7260002007047FEE7704772B6B9
:10065000FEE70000054805490839026842F0020239
:10066000026008688004FCD5704700000C480258FE
:10067000F0B503684FF6FC716D4C426BD3F88450B3
:100680008D4345EA8205C3F88450036853F8845FBC
:10069000068F25F47F0545EA06451D60836B654D91
:1006A0009F180268D2F888308B4343EA8703C2F868
:1006B0008830026852F8883F868F23F4FE0343EAAD
:1006C00006431360066856F8A03FC26B8B4307EBE6
:1006D000420243EA82033360076857F8A03FB0F84C
:1006E000406023F4FE0343EA06433B60D0E9103642
:1006F00003FB06220368D3F8B0608E4346EA820605
:10070000C3F8B0600368B0F84860D3F8B07027F45D
:10071000FE0747EA0646C3F8B060D0E912670368EF
:1007200006FB0722D3F8AC608E4346EA8206C3F884
:10073000AC60D0E91467036806FB0722D3F8F060C9
:100740008E4346EA8206C3F8F0600368B0F858604A
:10075000D3F8F07027F47C1747EA0646C3F8F06038
:100760000368876D53F8C06F02EB47028E4346EA79
:10077000820119600168B0F85C20D1F8C03023F420
:100780007C1343EA0242C1F8C020016890F860205F
:10079000D1F8C03023F07C5343EA0262C1F8C02094
:1007A000416B04EB8101C166826B01EB820202673F
:1007B000C36B02EBC3024267D0E91034634302EB20
:1007C00083028267D0E91234634302EB8302C2677B
:1007D000D0E91434634302EB8302C0F88020836DB8
:1007E00002EBC303C0F88430C46D826E544303EB44
:1007F0008403C0F88830046E544303EB8402C0F8CD
:100800009020AA420AD9D0F89C20032142F020026D
:10081000C0F89C2080F898100120F0BD002200E074
:1008200004C1D0F890308B42FAD80020F0BD00000F
:1008300000AC0040FCD300402DE9F04194B08D495C
:100840004C2204466846FFF740FE64B18A4D20689A
:10085000A84202D100F58070606094F898004FF0D3
:10086000000820B108E0012014B0BDE8F081204666
:1008700084F8998000F002F92068816921F0100164
:10088000816100F06FFA0327064604E000F06AFA7F
:10089000801B0A2811D8206880690007F6D42068D8
:1008A000816941F00101816100F05CFA06460DE0CA
:1008B00000F058FA801B0A2808D9D4F89C0040F0B0
:1008C0000100C4F89C0084F89870CCE72068806927
:1008D000C007EDD02068816941F002018161207C70
:1008E00001282068816937D041F040018161607C36
:1008F00001282068816932D021F480418161A07C87
:100900000128206881692DD041F4805181612068DF
:10091000A268816921F44071114381612068816975
:1009200021F0A40181612068016921F010010161B9
:10093000E068012819D010B302281BD02068816913
:1009400041F0800181612068016941F0100101617D
:10095000E06803280ED012E021F04001C6E741F420
:100960008041CBE721F48051D0E72068816941F0D4
:10097000040103E02068816941F020018161207E4B
:100980006FF0FF02D4E90773A68A1102400602EB5A
:100990000727A0F10070384327685B1E184301EB5E
:1009A00006463043F861A068B0F5407F11D104F1EC
:1009B0002800A68C6FF00F0C89C801EB0641401E81
:1009C00002EB0322104322680CEB07131843084381
:1009D000D060206E30B12068626ED0F8C010114334
:1009E000C0F8C010D4E917126846D14209D0216876
:1009F000A36E51F8C82F50F8233022F007021A4393
:100A00000A60216C49B12168626C51F8BC3F50F812
:100A1000226023F0070232430A60A16C51B12168C1
:100A2000E36C51F8BC2F50F8233022F0700242EAF8
:100A300003120A60216D51B12168626D51F8BC3F0B
:100A400050F8220023F4E06242EA002008602068A7
:100A5000A84204D16068816821F003018160C4F874
:100A600094800121C4F89C8084F898102046FFF7F8
:100A7000FFFDF9E63844000800A0004070B5B6B0AC
:100A80000446142130A8FFF75AFDC0216846FFF73D
:100A900056FD2249206888423ED100204FF4004193
:100AA000CDE900104A0368461C9200F0A7FA08B18D
:100AB000FFF7CDFD1A48016841F4807101600068BC
:100AC00000F48070359016480C38016841F08001C0
:100AD0000160016801F080013591016841F0020177
:100AE000016000680225002400F00200359009260C
:100AF00068033090CDE931540A4830A9CDE9334636
:100B000000F014F828023090CDE93154064830A99D
:100B1000CDE9334600F00AF836B070BD00A00040C1
:100B2000EC440258001C0258000402582DE9F84F0A
:100B300003247D4D00234FF001094FF0B04B4FF0DF
:100B40000F0AE9E009FA03F73A4076D00E7906F089
:100B50000306012E01D0022E18D1D0F808C04FEAAA
:100B6000430ECE6804FA0EF82CEA080C06FA0EF6CC
:100B700046EA0C068660D0F804C00E792CEA070C11
:100B8000C6F300169E4046EA0C0646600E79F64310
:100B9000B6070BD0C6684FEA43088F6804FA08FC12
:100BA00026EA0C0607FA08F73743C7600E7906F005
:100BB0000306022E12D1DE080F694FEA437C00EBD8
:100BC0008606B646366A4FEADC6C0AFA0CF807FA73
:100BD0000CF726EA08063743CEF820700F7906682E
:100BE0004FEA430807F0030704FA08FC07FA08F77E
:100BF00026EA0C06374307604E6816F4403F1CD0C7
:100C00004A4E376847F00207376036689F0706F09C
:100C10000206009623F0030606F1B046B6463F0FE3
:100C2000D6F80864DFF808810AFA07FC404526EA8E
:100C30000C0603D14FF0000C41E06CE0DFF8F4C08B
:100C4000604502D14FF0010C39E0DFF8ECC060459F
:100C500002D14FF0020C32E0DFF8E0C0604502D173
:100C60004FF0030C2BE0DFF8D8C0604502D14FF005
:100C7000040C24E0DFF8CCC0604502D14FF0050C35
:100C80001DE0DFF8C4C0604502D14FF0060C16E04D
:100C9000DFF8B8C0604502D14FF0070C0FE0DFF875
:100CA000B0C0604502D14FF0080C08E0DFF8A4C0E6
:100CB000604502D14FF0090C01E04FF00A0C0CFA2C
:100CC00007FC4CEA060CCEF808C44F68DBF800605D
:100CD000FF0226EA020600D516435F46CBF8006005
:100CE000D1F804C0DBF804605FEA8C2C26EA020627
:100CF00000D516437E606E684F6826EA0206BF0381
:100D000000D516436E602E684F6826EA0206FF0380
:100D100000D516432E605B1C0A6832FA03F67FF496
:100D200011AFBDE8F88F000080000058F44402586D
:100D3000000002580004025800080258000C025833
:100D4000001002580014025800180258001C0258E3
:100D5000002002580024025801480068000C704727
:100D60000010005C01488068704700000400002407
:100D700002488168027811448160704704000024B1
:100D8000032010B500F0FEF800F09EFF0F4A104956
:100D900014681368C4F3032203F00F038A5CC95C70
:100DA00002F01F0201F01F01D0400A4A20FA01F1AF
:100DB0001160094908600F2000F010F808B1012007
:100DC00010BD00F09FF8002010BD0000184402582C
:100DD00084440008140000241000002410B51028DA
:100DE00004468AB02CD200220146362000F0AAF830
:100DF000362000F099F8174804601748016841F060
:100E000010010160006809A900F010000890684610
:100E100000F0F8FE0598B0B100F044FF40000F4923
:100E200000220F4CB0FBF1F10E4840F2E7330460B2
:100E3000C0E90332491EC0E9011201F0A5FA28B148
:100E400001200AB010BD00F02DFFE8E7054801F0D1
:100E5000CDFAF6E708000024E844025840420F00AB
:100E60000010004038010024154BF0B5083B4278D3
:100E700013491A600B680A1F23F001030B604368D3
:100E80001360057BC67A827A437B2D07847B45EA13
:100E90000665C77B90F809C0067A90F800E045EA3D
:100EA000C24040EA834040EA444040EA074040EA0A
:100EB0000C2040EA460040EA0E000860F0BD000049
:100EC000A0ED00E0BFF35F8F044800210368034AF0
:100ED00023F48033036070321160704724ED00E02A
:100EE000074A40F00100064970321060086840F47B
:100EF00080300860BFF34F8FBFF36F8F70470000E3
:100F000024ED00E0074882B0016841F00201016071
:100F1000006800220F2100F002000090901E02B035
:100F200000F010B8F4440258002809DB410900F031
:100F30001F028900012001F1E0219040C1F8000169
:100F4000704700000E4BF0B41B680D46C3F302233C
:100F5000C3F10706042E00D90426191D072901D262
:100F6000002300E0DB1E012404FA06F19C40491E28
:100F70002940641E994014402143F0BC01F0FFBD9C
:100F80000CED00E0064900F0070210B54FF6FF0433
:100F90000868044B204040EA02201843086010BD56
:100FA0000CED00E00000FA05134970B50A68D24361
:100FB000520705D5096801F00701814213D118E0F5
:100FC0000A6822F0070202430A60FFF7CBFE0A4DCF
:100FD0004FF47A760446083D07E000BFFFF7C2FEF3
:100FE000001BB04201D9012070BD2868C0438004B5
:100FF000F4D4002070BD00000C4802582DE9FE4FCB
:101000000546DFF8E48350F8081B0024F64FC94377
:10101000019005F12800264608F1240800900801F7
:101020001DD4A86E50B1B0F5801F0CD0B0F5001FD4
:101030000ED0B0F5401F1ED001240FE0386840F4F8
:101040000030386017E00198022101F029FB03E02D
:101050000098022101F0B4FB04000CD02646288839
:10106000C043C00523D4A86D05281ED2DFE800F0D8
:101070000C11161B1B00AA6ED8F8001021F44011A9
:101080001143C8F80010EAE7386840F400303860CF
:1010900009E00198002101F003FB03E00098002122
:1010A00001F08EFB044674B100E001242646288836
:1010B000C043800528D4E86D80281ED00CDC90B198
:1010C00040280ED114E0AA6DD8F8001021F00701D5
:1010D0001143C8F80010EAE7C02813D0B0F5807FAC
:1010E00010D001240FE0386840F40030386009E087
:1010F0000198002101F0D4FA03E00098002101F0EA
:101100005FFB04469CB126462888DFF8DC92C0438A
:1011100009F12C0940052CD4D5F8A800B0F5800FB2
:1011200020D00DDCA0B1B0F5001F0FD115E0EA6DA5
:10113000D8F8001021F4E0711143C8F80010E3E77B
:10114000B0F5C00F13D0B0F5000F10D001240FE0A0
:10115000386840F40030386009E00198002101F05F
:101160009FFA03E00098002101F02AFB04467CB1BD
:1011700026462888C04300052DD4D5F8AC00B0F130
:10118000007F21D00EDCA8B1B0F1807F10D116E035
:10119000D5F8A820D9F8001021F460011143C9F84E
:1011A0000010E6E7B0F1407F13D0B0F1806F10D0AF
:1011B00001240FE0386840F40030386009E00198FD
:1011C000002101F06DFA03E00098002101F0F8FA27
:1011D000044674B126462868C04380011FD4E86CD9
:1011E000D8B110280FD0202812D0302815D00124D3
:1011F00014E0D5F8AC20D9F8001021F0E0611143DB
:10120000C9F80010E7E7386840F40030386004E0BF
:101210000198022101F044FA044674B12646288858
:10122000C043C0042BD4286EB0F5005F20D00DDC85
:10123000A0B1B0F5805F0FD115E06B48EA6C2030AB
:10124000016821F0300111430160E8E7B0F5405F2B
:1012500013D0B0F5804F10D001240FE0386840F46F
:101260000030386009E00198002101F019FA03E02C
:101270000098002101F0A4FA04468CB12646288883
:10128000C043800429D4686EB0F5403F23D010DC01
:1012900008B3B0F5803F14D0B0F5003F0FD115E092
:1012A0002A6ED8F8001021F4E0411143C8F800106C
:1012B000E5E7B0F5802F0ED0B0F5A02F0BD00124BC
:1012C0000AE00198012101F0EBF903E00098012107
:1012D00001F076FA044694B126462888C0434004BB
:1012E0002AD4D5F8B000B0F1405F23D010DC08B3A9
:1012F000B0F1805F14D0B0F1005F0FD115E06A6EDD
:10130000D8F8001021F4E0211143C8F80010E4E7F8
:10131000B0F1804F0ED0B0F1A04F0BD001240AE005
:101320000198012101F0BCF903E00098012101F0CE
:1013300047FA044674B126462888C04300041FD4E7
:10134000286FD8B1B0F1805F0ED0B0F1005F10D03F
:10135000012414E0D5F8B020D9F8001021F0E041C4
:101360001143C9F80010E7E7386840F400303860EE
:1013700004E00198012101F093F9044674B1264676
:101380002868C043C0011ED4A86CD0B101280ED07B
:10139000022811D0032814D0012413E02A6FD8F8B2
:1013A000001021F040511143C8F80010E8E73868F8
:1013B00040F40030386004E00198022101F070F937
:1013C0000446ACB126462868DFF81CB0C043ABF138
:1013D0001C0B400252D40548016841F48071016041
:1013E000FFF7C0FC824611E02C4402580048025826
:1013F000FA48AA6C016821F0030111430160E2E799
:10140000FFF7B0FCA0EB0A00642835D8F448006868
:10141000C005F5D58CBBDFF8C4A3B5F8B4100AF14C
:10142000240ADAF8000001F4407100F440708842A8
:1014300011D0DAF80010DAF8002021F4407142F4FB
:101440008032CAF80020DAF8002022F48032CAF88C
:101450000020CAF80010D5F8B400B0F5807F1AD18A
:10146000FFF780FC029012E0FFF77CFC0299411A22
:1014700041F2883081420AD9032426462878DFF8D1
:101480005CA3C0430AF1080AC00721D03CE0DAF8A7
:1014900000008007E8D5D5F8B410C1F30120032877
:1014A00058460DD0016821F47C510160B5F8B42094
:1014B000DAF80010C2F30B021143CAF80010DDE79E
:1014C000C84A036802EA111223F47C511143ECE785
:1014D000E86F182816D005DCA0B1082808D010281D
:1014E00004D10AE020280DD028280BD001240AE0DE
:1014F0000198012101F0D4F803E00098012101F0E6
:101500005FF9044664B126462878C04380071ED49C
:10151000A86F062819D2DFE800F0160C111616166F
:10152000EA6FDAF8001021F038011143CAF8001010
:10153000EAE70198012101F0B3F803E000980121E6
:1015400001F03EF904467CB100E0012426462878EB
:10155000C04340071FD4D5F89400062819D2DFE80D
:1015600000F0160C11161616AA6FDAF8001021F00A
:1015700007011143CAF80010E9E70198012101F0C1
:101580008FF803E00098012101F01AF90446A4B194
:1015900000E0012426462878C04380062BD4D5F8E5
:1015A0009000B0F1405F24D011DC10B3B0F1805F47
:1015B00015D0B0F1005F10D116E0D5F89420D9F81D
:1015C000001021F007011143C9F80010E3E7B0F162
:1015D000804F0ED0B0F1A04F0BD001240AE001984B
:1015E000002101F05DF803E00098022101F0E8F825
:1015F000044694B126462878C04340062BD4D5F83B
:101600009C00B0F5406F24D011DC10B3B0F5806FB2
:1016100015D0B0F5006F10D116E0D5F89020DAF8AB
:10162000001021F0E0411143CAF80010E3E7B0F5E3
:10163000805F0ED0B0F5A05F0BD001240AE00198C6
:10164000002101F02DF803E00098022101F0B8F824
:10165000044694B126462878C04300062BD4D5F81A
:10166000A000B0F5C04F24D011DC10B3B0F5005F7E
:1016700015D0B0F5804F10D116E0D5F89C20D9F8E0
:10168000001021F4E0511143C9F80010E3E7B0F570
:10169000004F0ED0B0F5204F0BD001240AE0019886
:1016A000002100F0FDFF03E00098022101F088F81E
:1016B000044654B126462878C04300071ED4D5F806
:1016C0008400B0F5805F0AD00FE0D5F8A020D9F8EB
:1016D000001021F460411143C9F80010EBE70098B5
:1016E000022101F06DF800B10126D5F88420DAF866
:1016F000001021F440511143CAF800102878C0436B
:10170000C00613D4D5F89800B0F5807F05D10098B5
:10171000022101F055F800B10126D5F89820D9F83A
:10172000001021F440711143C9F800102868C0432B
:10173000000316D4D5F8A40038B1B0F5803F09D025
:10174000B0F5003F0BD001240AE00198002100F021
:10175000A7FF03E00098022101F032F804468CB1A3
:1017600026462868C043400322D4D5F88800B0F547
:10177000801F11D0B0F5001F13D0B0F5401F15D059
:10178000012414E0D5F8A420D9F8001021F4403148
:101790001143C9F80010E4E7386840F400303860BD
:1017A00004E00098012101F00BF804465CB12646E4
:1017B0002868C043C00323D4286DA8B1B0F5803F8A
:1017C00017D001241BE0D5F88820DAF8001021F4A6
:1017D00040111143CAF80010EAE700004C440258D7
:1017E00000480258CFFFFF00386840F400303860EE
:1017F00004E00198022100F053FF0446E4B12646BC
:101800002868C043800005D40098022100F0D8FF6A
:1018100000B101262868C04380031BD4D5F880009E
:10182000B0B1B0F5807F0FD0B0F5007F10D0B0F52B
:10183000407F0DD001240CE05A482A6D016821F444
:10184000803111430160DBE7386840F400303860D4
:10185000ECB326462868C043C00207D46A6FD8F8A4
:10186000001021F000411143C8F800102868C0435F
:10187000C00008D4D5F8B820DBF8001021F480416E
:101880001143CBF800102868C043800207D4EA6EE9
:10189000D8F8001021F080711143C8F800102868B2
:1018A000C04340000CD4DBF8001021F40041CBF819
:1018B0000010DBF80010D5F8BC201143CBF8001065
:1018C0002868C04308D437486A6D016800E018E012
:1018D00021F04051114301602868C043000208D440
:1018E000D5F88C20DAF8001021F440011143CAF831
:1018F000001028790024C04300F0010020430AD0E2
:101900000FE0D5F88020DAF8001021F4407111437F
:10191000CAF800109EE70198002100F0C1FE00B156
:1019200006462879C04300F00200204305D1019803
:10193000012100F0B5FE00B106462879C04300F051
:101940000400204305D10198022100F0A9FE00B156
:1019500006462879C04300F00800204305D10098CE
:10196000002100F02DFF00B106462879C04300F0A9
:101970001000204305D10098012100F021FF00B1A3
:1019800006462879C04300F02000044304D10098A3
:10199000022100F015FF00B916B10120BDE8FE8F4D
:1019A0000020FBE74C4402582DE9F05F04000F468D
:1019B0007ED0DFF83882D8F8000000F00F00B8427F
:1019C0000CD2D8F8001021F00F013943C8F80010EC
:1019D000D8F8000000F00F00B84269D12078844D9B
:1019E00040070AD52069296801F07001884204D9AE
:1019F000296821F070010143296020787C4E361D52
:101A000000070AD56069316801F07001884204D985
:101A1000316821F07001014331602078C0060AD599
:101A2000A069316801F4E061884204D9316821F489
:101A3000E061014331602078DFF8B4B180060BF13A
:101A4000080B0CD5E1695846DBF8002002F0700263
:101A5000914204D9026822F070020A4302602078A1
:101A600080070AD5E068296801F00F01884204D98F
:101A7000296821F00F01014329602078C0073ED07A
:101A80005B49A2682868183920F470601043286008
:101A90006068022818D0032819D00968012819D0D5
:101AA000490700294ADADFF848A1AAF1080A00E04C
:101AB00044E0DAF8002022F007020243CAF80020CE
:101AC000FFF750F9814612E009688903E9E70968E0
:101AD0008901E6E7C905E4E7FFF744F9A0EB09014E
:101AE00041F28830814202D90320BDE8F09F61684D
:101AF000DAF8000000F03800B0EBC10FECD120782C
:101B000080070AD5E068296801F00F01884204D2F5
:101B1000296821F00F0101432960D8F800104046E0
:101B200001F00F01B9420BD9016821F00F013943CF
:101B30000160006800F00F00B84201D00120D4E736
:101B4000207840070AD52069296801F07001884291
:101B500004D2296821F07001014329602078000730
:101B60000AD56069316801F07001884204D2316899
:101B700021F07001014331602078C0060AD5A069C8
:101B8000316801F4E061884204D2316821F4E061F7
:101B900001433160207880060CD5E1695846DBF8B6
:101BA000002002F07002914204D2026822F070021A
:101BB0000A43026000F088F80E492A682B68C2F3D5
:101BC000032203F00F038A5CC95C02F01F0201F0DC
:101BD0001F01D040084A20FA01F11160074908604E
:101BE00007480068BDE8F05FFFF7F8B80020005232
:101BF00018440258844400081400002410000024F3
:101C00000800002470B5144C3F220260124A246878
:101C10000832131D114D04F00704446016681C1DA2
:101C200006F470668660166806F00F06C6601268D5
:101C300002F0700202611A6802F0700242611A68D2
:101C400002F4E0628261226802F07002C2612868D8
:101C500000F00F00086070BD1044025800200052D0
:101C600030B500F031F80B4A0B490C4B156814687D
:101C7000C5F3032204F00F048A5C095D02F01F0221
:101C800001F01F01D040064A20FA01F119601060EE
:101C9000084630BD1844025884440008140000244B
:101CA0001000002400B5FFF7DBFF05490968054A6D
:101CB000C1F30211515C01F01F01C84000BD0000DA
:101CC0001C44025884440008454970B545480968D9
:101CD000434B103B11F0380208D00111082A03D001
:101CE000102A0BD0182A0BD0084670BD1968890637
:101CF000FBD51968C1F3C101C84070BD3A4870BD39
:101D00003749374D18310C1D24350A680968266893
:101D10002D6802F0030406F00102C1F30511C5F3BA
:101D2000CC0515FB02F200EE102AB8EE400AE9B32A
:101D30002F4ADFED2E0AB7EE001A6CB1DFED2D1A37
:101D4000012C01D0022C43D002EE101A1068F8EEDC
:101D5000422A81EEA22A1EE01C68A40611D51B6847
:101D600001EE901A1168C3F3C103F8EE612AD8405E
:101D700001EE900AC1F30800F8EE611A81EEA22A82
:101D80000BE001EE901ADFED1C2A00BFF8EE611A9D
:101D9000106882EEA12AC0F3080001EE900AF8EE66
:101DA000611A40EE201A31EE810A00E015E022EEC1
:101DB000000A1068C0F34620401C00EE900AF8EEBE
:101DC000600A80EE201ABCEEC10A10EE100A70BD47
:101DD00001EE901ADFED092AD8E7002070BD00005F
:101DE000104402580090D00340787D010000003973
:101DF000304402580024744A0024744C20BCBE4B6A
:101E00002DE9F05F04007DD0FF4F2078FE4D18379C
:101E1000DFF8F493103DC00748D0D9F800003968C6
:101E200000F03800102815D0182803D101F0030065
:101E300002280FD06068B0F5803F12D010B1B0F525
:101E4000A02F18D0286820F480302860286820F45B
:101E5000802009E02868800328D560680028D2D057
:101E600024E0286840F480302860606888B1FEF77C
:101E700079FF064609E0286840F480202860F0E7F2
:101E8000FEF770FF801B64286FD828688003F7D5A1
:101E90000CE0FEF767FF064605E000BFFEF762FFB5
:101EA000801B6428F0D828688003F7D4207841F29A
:101EB0000308D54E0C3E800769D5D9F80000396873
:101EC00010F038000ED0182801D188070AD0E06839
:101ED00090B3296821F0190101432960FEF742FF00
:101EE000824631E02868400702D5E06800288AD0A1
:101EF000E168286820F0190008432860FEF732FFE7
:101F0000824607E0DFE000BFFEF72CFFA0EB0A00EF
:101F10000228B9D828684007F6D500BFFEF71CFF95
:101F200040451BD82069402812D0316821F47C310B
:101F300041EA003030602AE018E000BFFEF712FFEF
:101F4000A0EB0A0002289FD828684007F6D5E5E7ED
:101F5000306820F47C3040F40030EBE7207C3168BE
:101F600021F0FE4141EA0060E4E70DE1286820F03D
:101F700001002860FEF7F6FE824605E0FEF7F2FE5D
:101F8000A0EB0A0002288DD828684007F6D42078F4
:101F9000C0065DD5D9F80000DFF86CB2396800F0F2
:101FA0003800ABF1040B082810D0182803D101F039
:101FB000030001280AD0E0690028286838D040F0E2
:101FC00080002860FEF7CEFE824623E02868C00528
:101FD00023D5E069802876D11FE0206A202821D00F
:101FE000316821F0F84141EA8060306030E000BFA4
:101FF00094F82010DBF8002022F07C5242EA0161C4
:10200000CBF8001024E000BFFEF7ACFEA0EB0A0006
:10201000022898D82868C005F6D5FEF79DFE4045F1
:10202000E6D8DAE7306820F0F84040F08040DCE79E
:1020300020F080002860FEF795FE064605E000BF10
:10204000FEF790FE801B02289DD82868C005F7D4B3
:102050002078000729D56C486169643000298046E2
:10206000016811D041F001010160FEF77BFE0646D8
:1020700005E000BFFEF776FE801B0228C9D8D8F81D
:1020800000008007F6D510E021F001010160FEF7A5
:1020900069FE064605E000BFFEF764FE801B0228CD
:1020A00072D8D8F800008007F6D42078800623D5AF
:1020B000A0690028286810D040F480502860FEF7FE
:1020C00051FE064605E036E1FEF74CFE801B022875
:1020D0005AD828688004F7D50EE020F48050286094
:1020E000FEF740FE064604E0FEF73CFE801B022899
:1020F0004AD828688004F7D4207840074FD5DFF805
:102100000C81D8F8001041F48071C8F80010FEF777
:1021100029FE064605E000BFFEF724FE801B64286A
:1021200032D8D8F80000C005F6D5374EA068603622
:1021300001280AD008B1052813D0306820F001002A
:102140003060306820F0040002E0306840F00100A8
:102150003060A06841F2883A90B1FEF703FE8046F5
:102160000AE0306840F004003060EEE7FEF7FAFD68
:10217000A0EB0801514507D830688007F6D50EE07E
:10218000FEF7F0FD804607E084E000BFFEF7EAFDC1
:10219000A0EB080151457DD830688007F6D4606A0D
:1021A000B0B3DFF86480D9F8001008F120084FF6CA
:1021B000F87B08F10409C1F3C2010329A8F1040A5C
:1021C00069D00228286820F08070286003D0FEF7CC
:1021D000C9FD044684E0FEF7C5FD064605E000BFE4
:1021E000FEF7C0FD801B022877D828688001F7D44D
:1021F000E26A40F2F331386854F8283F884340EAF5
:1022000002101843386004E0104402580048025895
:10221000B5E0217B434622894FF4FE0C208A4FF023
:10222000FE474902267D521E401EA1F50071C2F3F1
:1022300008088AB2761E0CEA004042EA080202430D
:10224000504607EA06610A431A60DAF8002022F0D5
:102250000102CAF80020D9F80020266A22EA0B02FF
:1022600042EAC602C9F80020DAF80010A26921F09B
:102270000C011143CAF800100168E26921F0020163
:1022800011430160016841F480310160016841F44B
:10229000003101E021E027E00160016841F4802184
:1022A0000160016841F001010160286840F0807020
:1022B0002860FEF757FD044605E000BFFEF752FD1B
:1022C000001B022809D828688001F7D557E000BF15
:1022D000FEF748FD001B022802D90320BDE8F09F4D
:1022E00028688001F4D44AE039680128D8F8000051
:1022F00021D0A26A01F0030393421CD1E26AC1F328
:1023000005118A4217D1216BC0F30802491E8A4287
:1023100011D1616BC0F34622491E91420BD1A16BD2
:10232000C0F30642491E914205D1E16BC0F306603D
:10233000491E814201D00120D0E7A16C4E46D9F858
:102340000000C0F3CC00814219D0DAF800005546F5
:1023500020F00100CAF80000FEF704FD4FEA000774
:10236000FEF700FDB842FBD0A26C306820EA0B00FB
:1023700040EAC2003060286840F001002860002078
:10238000ACE770477047704710B5040003D094F86D
:102390003D0010B107E0012010BD002084F83C0092
:1023A000204600F022F8022084F83D002068211D1C
:1023B00000F07EFB012084F8480084F83E0084F899
:1023C0003F0084F8400084F8410084F8420084F81B
:1023D000430084F8440084F8450084F8460084F8FB
:1023E000470084F83D00002010BD704790F83D1074
:1023F000012901D001207047174A022180F83D10C1
:102400000168CB6843F00103CB600068904214D0B0
:10241000B0F1804F11D0114988420ED01049884246
:102420000BD01049884208D00F49884205D00F4987
:10243000884202D00E49884207D181680D4A114076
:10244000062906D0B1F5803F03D0016841F00101B3
:1024500001600020704700000000014000040040BF
:1024600000080040000C004000040140001800403B
:10247000004001400700010070472DE9F04104468B
:1024800000680027C6680569A90713D5B10711D5EB
:10249000FA1E0261012121772068806980072046A9
:1024A00002D0FFF7E9FF04E000F08BF8204600F0CF
:1024B00089F82777680716D5700714D52268022097
:1024C0006FF00401116120772068806910F4407F6B
:1024D000204602D0FFF7D0FF04E000F072F820465B
:1024E00000F070F82777280715D5300713D5226834
:1024F00004206FF00801116120772068C06980070F
:10250000204602D0FFF7B8FF04E000F05AF820465A
:1025100000F058F82777E80616D5F00614D522689B
:1025200008206FF01001116120772068C06910F455
:10253000407F204602D0FFF79FFF04E000F041F803
:10254000204600F03FF82777E80708D0F00706D0CC
:1025500021686FF001000861204600F035F8280678
:1025600001D4A80408D5300606D521686FF40250BE
:1025700008612046FFF706FFE80508D5300606D5B6
:1025800021686FF4807008612046FFF7FAFE680644
:1025900008D5700606D521686FF040000861204616
:1025A00000F01CF8A8060AD5B00608D521686FF01F
:1025B000200008612046BDE8F041FFF7E4BEBDE819
:1025C000F08170477047000000680349884201D1DC
:1025D000FEF7CEBB70470000001000407047FEE7DA
:1025E0001648002110B5144C012204230460102465
:1025F0008160C160017441748174C0E90542C261A7
:10260000026242628262C262C0E90C218163C163DC
:10261000C0E91013C0E91213C0E914138165C16544
:102620000166C0E91913FEF707F9002803D0BDE8D9
:102630001040FEF70CB810BD00A000409800002428
:10264000044A0021044810B500F01CFB034908604F
:1026500010BD000004440008E12800080000002428
:102660000D4808B5016841F001010160016801F001
:1026700001010091016841F080010160016801F0F1
:1026800080010091016841F002010160006800F0E2
:102690000200009008BD0000E0440258FEE7FEE79B
:1026A0002DE9F047454D044689464FF0000A286859
:1026B000C04380070AD0414E283E306820F0806039
:1026C0003060FEF74FFB0746B04608E00120BDE84A
:1026D000F08700BFFEF746FBC01B022867D8D8F87A
:1026E00000000001F6D4206829684FF4FE0721F4A9
:1026F0007C313E0241EA00302860207AA389B4F898
:1027000004C040022D4D2D495B1E227CACF1010C12
:102710001035091DA0F5007080B2521ECCF3080CD4
:1027200007EA034340EA0C00184306EA026210433A
:1027300028600868626920F0C000104308600A68D9
:10274000A06922F0200202430A60281D0A6822F0D4
:1027500010020A6002684FF6F873E4699A4342EA8D
:10276000C40202600868B9F1000F40F010020A606C
:1027700011D00868B9F1010F11D040F400100860C1
:10278000D8F80000444640F08060C8F80000FEF72A
:10279000E9FA05460DE0086840F40020EFE740F450
:1027A0008010ECE7FEF7DEFA401B022801D9032077
:1027B0008DE720680001F5D5504688E72844025887
:1027C0002DE9F047454D044689464FF0000A286838
:1027D000C04380070AD0414E283E306820F0805028
:1027E0003060FEF7BFFA0746B04608E00120BDE8BA
:1027F000F08700BFFEF7B6FAC01B022867D8D8F8EA
:1028000000008000F6D4208829684FF4FE0721F0EC
:102810007C713E0241EA00502860207AA389B4F816
:1028200004C040022D4D2D495B1E227CACF1010CF1
:102830001835091DA0F5007080B2521ECCF3080CAB
:1028400007EA034340EA0C00184306EA0262104319
:1028500028600868626920F44060104308600A68D4
:10286000A06922F4007202430A60281D0A6822F45B
:1028700080720A6002684FF6F873E4699A4342EA8C
:10288000C40202600868B9F1000F40F480720A6067
:1028900011D00868B9F1010F11D040F080700860C4
:1028A000D8F80000444640F08050C8F80000FEF719
:1028B00059FA05460DE0086840F48000EFE740F45F
:1028C0000000ECE7FEF74EFA401B022801D9032076
:1028D0008DE720688000F5D5504688E728440258E7
:1028E000012000F092F9FBE74FF0E02010B50069FD
:1028F00001F0CEFB012803D0BDE8104001F0F2B892
:1029000010BD000070B59CB04C216846FDF717FE65
:10291000202113A8FDF713FE0220FEF745FB2149F5
:10292000002421480A6822F001020A60096801684F
:1029300041F440410160016801F440411B9101688C
:102940008904FCD5022009900DF1280C0121009189
:10295000C20301920523A02608258CE849000C211A
:102960000F91CDE90D05CDE9105468461294FFF79B
:1029700047FA08B172B6FEE740201A903F210301E2
:10298000CDE916500322CDE9180313AB13A883E851
:1029900016000221FFF708F8002801D072B6FEE702
:1029A0001CB070BD2C040058184802583348F0B5CC
:1029B000334A016841F470010160106800F00F00B3
:1029C000072804D2106820F00F00C01D10602D49A8
:1029D00000202C4C10340B682B4D43F001030B608E
:1029E00020600B682B400B60136803F00F03072B6C
:1029F00004D9136823F00F03DB1D1360214C234A15
:102A00001834234B261D371D20601E4C214D2834C1
:102A10003060261D3860371D23603B1D35601C1D4E
:102A20003A60251D2E1D1860331D2260286032601B
:102A300018600A68134B184C22F4802260330A6035
:102A4000186020686FF30F00B0F1005F03D21349E4
:102A50000120C1F808010B48D4300168C9040BD427
:102A6000026843F2D2010E4B42F4805202601960B8
:102A7000016821F480510160F0BD000088ED00E0A4
:102A800000200052004402587FEDF6EA8002010166
:102A9000000202020000FF010010005C00800051F3
:102AA000004000520148FFF7E8BC00003801002454
:102AB0002DE9F047294B4FF0804A294D0268984292
:102AC000284E294F294C09D0504507D0A84205D09F
:102AD000B04203D0B84201D0A04205D1D1F804C021
:102AE00022F070024CEA0202DFF884C0DFF8848032
:102AF0009842DFF884900FD050450DD0A8420BD0FB
:102B0000B04209D0B84207D0A04205D0604503D0FA
:102B1000404501D0484503D1CD6822F440722A4394
:102B20008E684D6922F08002C6620E682A43984280
:102B3000866207D0A04205D0604503D0404501D051
:102B4000484501D1096901630368012143F0040389
:102B5000036041610260BDE8F087000000000140B1
:102B60000004004000080040000C00400004014048
:102B7000004001400044014000480140FEE70907D1
:102B800000284FEA116104DB00F1E02080F8001416
:102B9000704700F00F0000F1E02080F8141D70472E
:102BA0001FB500240094019402940394FEF78AF95F
:102BB00001208DF80C001F218DF8081087228DF858
:102BC00009208DF80D008DF8000068468DF80A4048
:102BD0008DF80E408DF8014001948DF80B408DF872
:102BE0000F40FEF741F90420FEF77AF9FEF7C8F826
:102BF000FFF788FEFFF734FDFFF7F2FC00F014F852
:102C0000FFF71EFD00F022F8FEE710B5EFF3058197
:102C100011B16FF0050404E04FF0000408B100F0BA
:102C200001FE204610BD0000EFF3058010B16FF0EB
:102C3000050070470449086810B14FF0FF30704735
:102C400001220A60002070476800002410B5EFF3ED
:102C5000058010B16FF0050010BD0848016801291A
:102C600002D04FF0FF3010BD054A002182F8141D3C
:102C70000221016000F03EFE002010BD680000242B
:102C80000BE000E02DE9FF414FEA01034FF00005A2
:102C9000EFF30581039561BB58B34FF080064FF009
:102CA00018014FF000044AB3176807B13C46976912
:102CB0001FB139467F1E382F02D21779FF0703D084
:102CC000002004B0BDE8F081576907B1BE08D2F812
:102CD00008C0BCF1000F0DD0D5685C2D18D3126967
:102CE0003AB137B18DE806103246214601F0A5F918
:102CF00003900DE0D7685FB912694AB903AACDE91C
:102D00000012B2B2214601F06BF9012800D0039500
:102D10000398D6E72DE9F041134C0F460546E668C7
:102D20002068001D00F048FC681C07D137B12168FD
:102D3000BDE8F0410D48091D00F090BC2068354405
:102D4000B5424560216805D2A06B091DBDE8F04180
:102D500000F06CBC606B091D00F068FCA06A854245
:102D600000D2A562BDE8F08118000024740600249A
:102D70002DE9F041054600F07DFC2D4C2D4FA0685B
:102D8000401CA060206810B1606930B32BE0256062
:102D9000A068012827D1002606EB860007EB8000FB
:102DA00000F036FC761C382EF6D3234800F030FCB9
:102DB0002148143000F02CFC1F48283000F028FC7B
:102DC0001D483C3000F024FC1B48503000F020FC33
:102DD000194860631430A06305E0E86A2168C96A95
:102DE000814200D82560606A401C60626864E86ABD
:102DF0002169884200D9206100EB8000291D07EB82
:102E0000800000F02BFC00F055FC606900280CD01D
:102E10002068E96AC06A884207D208494FF08050AA
:102E20000860BFF34F8FBFF36F8FBDE8F0810000E4
:102E300018000024C40100242406002404ED00E04E
:102E400038B500F017FC104C2068C8B90F4800F0E6
:102E5000DFFB0E48143000F0DBFB0C490020E16082
:102E600014312161A1F582730090A1F1B402102107
:102E70000A2000F04DFE206010B105A100F09CFC7E
:102E8000BDE8384000F016BC540000247807002448
:102E9000546D72510000000030B4026C0B46002AE1
:102EA0000BD0D0E902411144C160A14201D30168B5
:102EB000C160184630BCFDF7C3BA30BC70472DE97D
:102EC000F041856B1746026C0446002682B1C7B1FB
:102ED000E068FDF7B5FAE168206C2268091AE16044
:102EE000914202D2A168081AE060022F16D017E0C2
:102EF0002068A8B9A06801F043F906460020A06048
:102F00000EE06068FDF79CFAD4E90101226C1044E0
:102F10006060884204D32068606001E005B16D1EE6
:102F20006D1CA5633046BDE8F08110B5044690F8ED
:102F3000590058B101280CD002280FD0502080F33E
:102F40001188BFF34F8FBFF36F8FFEE7206B00F048
:102F5000C5FB2046BDE8104000F0C0BB10BD00001E
:102F600011484FF4705110B5420706D00E49C01DEC
:102F700020F00700411AC1F570510C4C00230144A8
:102F80000839A4F1180221F00701C4E900030C1A62
:102F900011604B600B60C0E9001494604FF0004179
:102FA0005460516110BD0000580E002484000024BC
:102FB000144E4FF08058144CDFF85090A6F29C4706
:102FC00012E000BF00F056FBF068C568281D00F055
:102FD000F3FAA068401EA0606068401E606000F0C8
:102FE00069FB2846FFF7A1FF60680028EAD138682E
:102FF0000128F9D9C9F80080BFF34F8FBFF36F8F55
:10300000F2E70000600600241800002404ED00E050
:1030100070B51D46049C51B1C4F80020C4E90F01ED
:103020000121204600F0A8FD84F84C5070BD2460BA
:10303000F4E72DE9F05F88469A4691001546DDE9F0
:103040000B940A9EA5228346206BFDF770FA206B35
:103050006FF0030101EB8501084420F007077807B2
:1030600007D0502080F31188BFF34F8FBFF36F8FCD
:10307000FEE7B8F1000F4FF000050ED00020221837
:1030800018F8001082F8341018F8001011B1401C24
:103090001028F4D384F8435001E084F83450382EDB
:1030A00000D33726E662201DC4E9136500F0BBFAA1
:1030B00004F1180000F0B7FA6565C6F13800A061A8
:1030C00084F858505246246159463846646200F0EC
:1030D0005BFAB9F1000F206001D0C9F80040BDE8EB
:1030E000F09F000030B5114900E011460A688242A5
:1030F000FBD34B685C18844203D1446808462344E0
:103100004B6043681D18954209D1084C183C24684F
:10311000A24209D052681A4442600A6812680260EA
:10312000814200D0086030BD0460F9E784000024CB
:1031300070B50D4D914241604FF00004006106D81A
:103140008169D21A8A4206D2011D286907E09A4293
:1031500003D2994201D3012403E0011DE86800F085
:1031600065FA204670BD00005400002410B50446E6
:1031700000F080FAA06B28B15FF0000400F09AFA2A
:10318000204610BD0124F9E730B53C4D89B06BE015
:103190000498002806DA059ADDE9060190470498AC
:1031A000002861DB069C606910B1201D00F004FA64
:1031B00003A800F0D5F8024604980A2854D2DFE8A4
:1031C00000F00505052D304705052D3094F8280041
:1031D00040F0010084F82800A06905990B460144DD
:1031E0002046FFF7A5FF50B3216A2046884794F890
:1031F0002800400738D50020009005980023A169D9
:1032000042181946204601F0C3F8C0B9502080F397
:103210001188BFF34F8FBFF36F8FFEE794F828003C
:103220001EE094F8280040F0010084F8280005987A
:10323000A06128B1811813462046FFF779FF13E0FB
:10324000502080F31188BFF34F8FBFF36F8FFEE7DD
:1032500094F82800810703D4204600F03FFA03E0E9
:1032600020F0010084F828002868002204A900F05A
:10327000DDFD00288CD109B030BD000054000024D1
:103280002DE9FC410F46054600F078FB01A800F04F
:1032900067F80446019818B100F0E8FFBDE8FC812A
:1032A000254EAFB130690068D0B300273068291BC4
:1032B0003A4600F095FA00F0D9FF0028EED11F49F8
:1032C0004FF080500860BFF34F8FBFF36F8FE5E77B
:1032D000A542EBD800F0CAFFF0682746C068C46872
:1032E000201D00F069F994F82800410719D5A0695C
:1032F0002B463A4641192046FFF71AFFA8B1002095
:103300002A46034601460090204601F041F860B984
:10331000502080F31188BFF34F8FBFF36F8FFEE70C
:1033200007E020F0010084F82800216A2046884741
:10333000B4E70127BAE700005400002404ED00E0E0
:103340000648416B096829B1416BC968C968496879
:10335000816270474FF0FF31FAE700001800002447
:1033600070B5054600F0A2FE064E0446B0688442E1
:1033700003D200F009F8012000E000202860204678
:10338000B46070BD54000024F8B5194D20E0C06849
:10339000C4680668201D00F00FF9216A204688479E
:1033A00094F82800400713D5A0693044B04206D9EC
:1033B0002461211D6060E86800F038F908E0002011
:1033C0003246034601460090204600F0E1FF38B146
:1033D000E86801680029DAD12969C5E90310F8BD58
:1033E000502080F31188BFF34F8FBFF36F8FFEE73C
:1033F0005400002408484068401C4FF0500080F3FF
:10340000118804D0BFF34F8FBFF36F8FFEE7BFF378
:103410004F8FBFF36F8FFEE78C000024074CE068EE
:10342000016841B1C0680021D0F80000FFF728FF13
:10343000FFF7AAFEF3E701210020F7E7540000247C
:103440002DE9F041044600F015F994F9455004F1D6
:10345000240609E0606A48B1304600F0CFFE08B1AA
:1034600000F00EFA6D1E6DB2002DF3DC4FF0FF364A
:1034700084F8456000F01EF900F0FCF894F944501F
:1034800004F1100709E0206948B1384600F0B6FEA3
:1034900008B100F0F5F96D1E6DB2002DF3DC84F873
:1034A0004460BDE8F04100F005B900002DE9F041AD
:1034B0000027044600F062FA324E306808B9FFF780
:1034C0004FFD706904424ED1C4B3083460070ED07A
:1034D00004F00700C0F108000444600707D0502042
:1034E00080F31188BFF34F8FBFF36F8FFEE72CB3CC
:1034F0007068844237D82348183001460D6801E0CF
:1035000028460D466968A14202D229680029F7D1F0
:1035100031688D4227D007682968016008376868DC
:10352000011B10290FD92819420708D0502080F319
:103530001188BFF34F8FBFF36F8FFEE713E0416039
:103540006C60FFF7CFFD69687068401A7060B26800
:10355000904200D2B060002072691143C5E90001B9
:10356000F068401CF06000F081FE780707D0502022
:1035700080F31188BFF34F8FBFF36F8FFEE738469C
:10358000BDE8F0816C00002470B5041F094E231FB4
:103590004FF0807521F0010125601C1F1960A0F11A
:1035A00020010B1F266044380A606FF002051D6081
:1035B00070BD0000F5330008D0E9013201699A605E
:1035C000D0E901235A604A68824201D182684A6088
:1035D000002202610868401E086008687047000009
:1035E00010B5044C8023046004F15C000860136093
:1035F00010BD0000A007002410B5044C4FF48073E8
:10360000046004F15C000860136010BDFC09002434
:103610004FF0FF3300F108010022C0E901130260FE
:10362000C1600161704700210161704730B50B68CE
:103630005A1C02D000F1080202E0026904E02246AE
:10364000546825689D42FAD953684B6099608A6036
:10365000516008610168491C016030BD42684A60E0
:1036600093688B6093685960916008610168491C98
:1036700001607047502080F31188BFF34F8FBFF374
:103680006F8F0A494868401C486001280CD10848DF
:10369000006810F0FF0F07D0502080F31188BFF3AF
:1036A0004F8FBFF36F8FFEE7704700008C00002440
:1036B00004ED00E00849486828B1401E486001D187
:1036C00080F311887047502080F31188BFF34F8F2B
:1036D000BFF36F8FFEE700008C00002470B5002858
:1036E0002AD0164DA0F1080461686869014207D12B
:1036F000502080F31188BFF34F8FBFF36F8FFEE729
:1037000022683AB1502080F31188BFF34F8FBFF386
:103710006F8FFEE78143616000F030F9606869688F
:10372000084468602046FFF7DDFC2869401C2861DA
:10373000BDE8704000F09ABD70BD00006C00002430
:103740004FF0E020002101614FF47A72816107237C
:1037500003490968B1FBF2F1491E416103617047F9
:103760001000002410B5FCF743FE114910280ED3B9
:1037700000F1E0200A7890F8F003904207D2502040
:1037800080F31188BFF34F8FBFF36F8FFEE70948B7
:103790008968006800F4E060884207D9502080F30F
:1037A0001188BFF34F8FBFF36F8FFEE710BD00008E
:1037B0008C0000240CED00E0084B5FF0000210B517
:1037C00053F832401CB1521C082AF9D310BD03EB48
:1037D000C20443F83210606010BD00008401002470
:1037E00070B515460E460446FFF744FF94F94410A1
:1037F0000020491C01D184F8440094F94510491C6B
:1038000001D184F84500FFF755FFA06B28B904F1FA
:1038100024002A46314600F051F82046BDE87040A9
:10382000FFF70EBE020010B514D00F48006B38B180
:10383000502080F31188BFF34F8FBFF36F8FFEE7E7
:1038400000F09CF800211046FFF764FA00F00EFD2E
:10385000002807D105494FF080500860BFF34F8F13
:10386000BFF36F8F10BD00001800002404ED00E0CE
:1038700002490A6A0260C968416070471800002462
:1038800001490120C86170471800002410B50C469A
:1038900050B1094909681831FFF7C8FE2046BDE854
:1038A00010400121FFF736BA502080F31188BFF392
:1038B0004F8FBFF36F8FFEE71800002470B51446DA
:1038C0000D4668B10A4909681831FFF7C7FE0CB107
:1038D0004FF0FF3521462846BDE87040FFF71ABA81
:1038E000502080F31188BFF34F8FBFF36F8FFEE737
:1038F0001800002430B587B0002405AA04A9039459
:1039000003A80494FFF76CFEDDE903010094002393
:10391000CDE90110174815A1059A00F08EFB164D50
:103920000028E8621FD000F003FD012809D0401CE8
:1039300019D1502080F31188BFF34F8FBFF36F8FE1
:10394000FEE7502080F31188BFF34F8FBFF36F8FD6
:1039500001214FF0FF30A8626961EC6007B0BDE85B
:10396000304000F045B807B030BD000049444C4538
:1039700000000000B12F0008180000240248016B6D
:10398000491C01637047000018000024164810B558
:10399000016B11B10121C16110BD0021C161134A48
:1039A000016901E0B9B1491E01EB810352F82330EE
:1039B000002BF7D001EB810302EB830202F1080434
:1039C00053685B685360A34201D15B685360DA6857
:1039D0000260016110BD502080F31188BFF34F8F4A
:1039E000BFF36F8FFEE7000018000024C40100241D
:1039F00037481CB5374902688A4207D1502080F306
:103A00001188BFF34F8FBFF36F8FFEE73149006816
:103A1000491E884207D1502080F31188BFF34F8F91
:103A2000BFF36F8FFEE72C49FF200A7801920870E0
:103A300008788DF800009DF800209DF8000002F045
:103A4000F002824207D0502080F31188BFF34F8FDD
:103A5000BFF36F8FFEE79DF8002007201F4C02F098
:103A600050022270A06005E09DF8002052008DF801
:103A70000020401E9DF800201206F5D40328A06007
:103A800007D0502080F31188BFF34F8FBFF36F8FA3
:103A9000FEE74FF44070A060019808700C48203099
:103AA000016841F470010160016841F070410160FA
:103AB000FFF746FE00206060FCF762FC08480168E2
:103AC00041F040410160FCF747FC00201CBD0000B4
:103AD00000ED00E071C20F4100E400E08C00002422
:103AE00034EF00E0502010B580F31188BFF34F8F02
:103AF000BFF36F8F00F0E0FA18B104494FF0805027
:103B00000860002080F3118810BD000004ED00E083
:103B1000F8B5069D18B153B1CAB181B120E050206B
:103B200080F31188BFF34F8FBFF36F8FFEE75020F4
:103B300080F31188BFF34F8FBFF36F8FFEE75020E4
:103B400080F31188BFF34F8FBFF36F8FFEE739B15A
:103B5000502080F31188BFF34F8FBFF36F8FFEE7C4
:103B600050241C46012683F8466000932B46FFF73D
:103B70004FFA2046F8BD00002DE9F04704008A46C0
:103B800029D0FFF777FD21680025D4E90F23D4F869
:103B900040C004F1100810460E46401E4FF0FF3999
:103BA00002FB031200FB0C10BAF1000FA563666064
:103BB00084F8449084F84590C4E9022013D040462C
:103BC000FFF726FD04F12400FFF722FDFFF772FD49
:103BD0000120BDE8F087502080F31188BFF34F8F9C
:103BE000BFF36F8FFEE720690028EFD0404600F05A
:103BF00005FB0028EAD004494FF080500860BFF36D
:103C00004F8FBFF36F8FE1E704ED00E02DE9FF4731
:103C100004001D4682B08A464FF0000803D0BAF176
:103C2000000F08D011E0502080F31188BFF34F8FB0
:103C3000BFF36F8FFEE7206C38B1502080F31188FE
:103C4000BFF34F8FBFF36F8FFEE7022D0AD1E06BFA
:103C5000012807D0502080F31188BFF34F8FBFF3A6
:103C60006F8FFEE700F014FA3F4F4FF080564FF091
:103C7000000948B9049838B1502080F31188BFF387
:103C80004F8FBFF36F8FFEE7FFF7F4FCA06BE16B84
:103C9000884207D3022D05D00498D0B1B8F1000FA7
:103CA0001AD01EE02A4651462046FFF708F9616AFD
:103CB00019B104F1240000F0A1FA20B13E60BFF375
:103CC0004F8FBFF36F8FFFF7F5FC012006B0BDE803
:103CD000F087FFF7EFFC22E06846FFF7C9FD4FF0E1
:103CE0000108FFF7E7FCFFF749FEFFF7C3FC94F973
:103CF0004400401C01D184F8449094F94500401CD4
:103D000001D184F84590FFF7D5FC04A9684600F07E
:103D10002BF930B12046FFF793FB00F0A7FA002003
:103D2000D4E7FFF7A7FCA06BE16B884213D1FFF744
:103D3000C1FC049904F11000FFF7A8FD2046FFF72D
:103D40007FFB00F093FA00289ED13E60BFF34F8FB7
:103D5000BFF36F8F98E7FFF7ADFC2046FFF770FBCE
:103D600000F084FA90E7000004ED00E02DE9F04750
:103D700004001F469046894603D0B9F1000F08D0D1
:103D800011E0502080F31188BFF34F8FBFF36F8F86
:103D9000FEE7206C38B1502080F31188BFF34F8FBD
:103DA000BFF36F8FFEE7022F0AD1E06B012807D027
:103DB000502080F31188BFF34F8FBFF36F8FFEE762
:103DC000FFF7D0FC5020EFF3118680F31188BFF38A
:103DD0004F8FBFF36F8FA06BE16B884206D3022F2A
:103DE00004D0002086F31188BDE8F08794F945508F
:103DF000A06B3A4649462046FFF761F8681C04D09C
:103E00006D1C84F845500120ECE7606A0028FAD068
:103E100004F1240000F0F2F90028F4D0B8F1000F0A
:103E2000F1D00121C8F80010EDE700002DE9F747B7
:103E300004008A4683B04FF0000603D0BAF1000FA9
:103E400008D011E0502080F31188BFF34F8FBFF3EB
:103E50006F8FFEE7206C38B1502080F31188BFF3DC
:103E60004F8FBFF36F8FFEE700F012F9DFF8F48099
:103E70004FF080574FF0000948B9059838B15020ED
:103E800080F31188BFF34F8FBFF36F8FFEE7FFF70B
:103E9000F1FBA56BC5B151462046FEF7FDFF6D1E37
:103EA000A563206950B104F1100000F0A7F928B112
:103EB000C8F80070BFF34F8FBFF36F8FFFF7FAFBA7
:103EC000012006B0BDE8F087059808B11EB106E0F4
:103ED000FFF7F0FB27E06846FFF7CAFC0126FFF773
:103EE000E9FBFFF74BFDFFF7C5FB94F94400401CCD
:103EF00001D184F8449094F94500401C01D184F824
:103F00004590FFF7D7FB05A9684600F02DF800287B
:103F100020460AD0FFF794FA00F0A8F92046FFF7F0
:103F200025F90028B3D00020CBE7FFF71FF990B1A7
:103F3000059904F12400FFF7A9FC2046FFF780FA59
:103F400000F094F90028A2D1C8F80070BFF34F8F99
:103F5000BFF36F8F9BE72046FFF772FA00F086F9F8
:103F600095E7000004ED00E02DE9F04105000C4666
:103F700012D0CCB1FFF77EFB184E2068F268471CC8
:103F80006B68A2EB030117D02F68366AB74215D0D1
:103F9000934213D801251CE0502080F31188BFF311
:103FA0004F8FBFF36F8FFEE7502080F31188BFF370
:103FB0004F8FBFF36F8FFEE700250AE0884205D9D7
:103FC000401A20602846FFF753FCF5E700202060E8
:103FD0000125FFF76FFB2846BDE8F081180000249B
:103FE0002DE9FF5F994616468A4683469000DDE933
:103FF0000E87FFF75BFA05001CD05C20FFF756FA2E
:10400000040014D00020256384F859004B46CDE904
:104010000087CDE90240324651465846FFF709F87D
:104020002046FEF7A5FE012004B0BDE8F09F28461B
:10403000FFF754FB4FF0FF30F6E7F0B585B0DDE950
:104040000B740A9DA7B1DCB15C262763022684F8B5
:104050005960002703970DF1100C0095CDE901C4BC
:10406000FEF7E7FF2046FEF783FE049805B0F0BD9B
:10407000502080F31188BFF34F8FBFF36F8FFEE79F
:10408000502080F31188BFF34F8FBFF36F8FFEE78F
:104090000548416919B1006B18B100207047012033
:1040A0007047022070470000180000240148C068D3
:1040B00070470000180000242DE9F0412E4C206BC1
:1040C000002728B1A069401CA0613846BDE8F081F6
:1040D000E668761CE66013D1606B006838B150204A
:1040E00080F31188BFF34F8FBFF36F8FFEE7606BD4
:1040F000A16B6163A063206A401C2062FFF720F976
:10410000DFF87880A06A864209D3606B0068A0B1AE
:10411000606BC068C5686868864211D2A06220687A
:10412000C06A00EB800158F82100012800D901275E
:10413000E0690028C9D00127C7E74FF0FF30EDE75D
:10414000281DFFF739FAA86A18B105F11800FFF722
:1041500033FAE86A2169884200D9206100EB8001C6
:1041600008EB8100291DFFF779FA2068E96AC06A27
:104170008142CAD30127C8E718000024C4010024E3
:1041800070B504464FF0000190B31A4D2868844280
:1041900007D0502080F31188BFF34F8FBFF36F8F8C
:1041A000FEE7206D38B1E36C401EE26A20659A425A
:1041B0001ED040B11CE0502080F31188BFF34F8F18
:1041C000BFF36F8FFEE7201DFFF7F6F9E06CC0F13B
:1041D0003801A161E0622969884200D9286100EBB9
:1041E0008000054901EB8000211DFFF737FA01210E
:1041F000084670BD18000024C401002470B5C068D2
:10420000C46854B104F118000646FFF7D5F9144DFF
:10421000286B50B11348314615E0502080F31188C7
:10422000BFF34F8FBFF36F8FFEE7201DFFF7C4F979
:10423000E06A2969884200D9286100EB80000A49B8
:1042400001EB8000211DFFF709FAE06A2968C96ABD
:10425000884203D90121E961084670BD002070BD84
:10426000180000244C060024C40100242DE9F04766
:104270002C4D286B0024274638B1FFF7FBF9286B3B
:10428000401E2863286B40B147E0502080F311881E
:10429000BFF34F8FBFF36F8FFEE7234E0120A96856
:1042A000D9B3A6F5916980463068E0B1F068C4687A
:1042B00004F11800FFF780F9201DFFF77DF9E06A8F
:1042C0002969884200D9286100EB800109EB81004F
:1042D000211DFFF7C3F9E06A2968C96A8842E3D360
:1042E000C5F81C80E0E70CB1FFF72AF8AC694CB1C7
:1042F0004FEA0806FFF7E0FE00B1EE61641EF9D157
:104300000020A861E86940B1084901274FF08050BA
:104310000860BFF34F8FBFF36F8FFFF7CBF93846BD
:10432000BDE8F087180000244C06002404ED00E0EE
:1043300010B586B0FEF784FD114C2068B8B100209E
:10434000039005AA049004A903A8FFF755F9DDE935
:104350000321022000238DE807000C4809A1059ADB
:10436000FFF76BFE606010B106B0012010BD502059
:1043700080F31188BFF34F8FBFF36F8FFEE700000C
:1043800054000024546D7220537663001D340008DD
:104390002DE9FF411E46134602004FF000000A9D22
:1043A00016D0144C2768002F0FD006290292CDE9B1
:1043B000001317DAFFF76CFE02284FF000030FD04E
:1043C000002220686946FFF721FC04B0BDE8F081B7
:1043D000502080F31188BFF34F8FBFF36F8FFEE73C
:1043E0002A46EEE70023324669463846FFF7BEFC10
:1043F000EBE70000540000244FF04070E1EE100A9B
:104400007047000094440008000000000000000015
:104410000000000000000000000200001800000082
:104420000000000000000000000102030405060770
:10443000080C10141820304000000000000000009C
:10444000000000000000000000000000010000006B
:104450000200000003000000040000000000000053
:104460000500000000000000000000000000000047
:104470000600000000000000000000000000000036
:104480000700000000000000010203040102030411
:104490000607080964656661756C745461736B0086
:1044A000C04400080000002498000000D402000866
:1044B000584500089800002420500000F002000831
:1044C00000000000010000001000000000000000DB
:1044D0000090D0030090D003000000000000000016
:1044E00000000000000000000000000000000000CC
:1044F00000000000000000000000000000000000BC
:1045000000000000000000000000000000000000AB
:10451000000000000000000000000000000000009B
:10452000000000000000000000000000000000008B
:10453000000000000000000000000000000000007B
:10454000000000000000000000000000000000006B
:08455000AAAAAAAA00000000BB
:040000050800029954
:00000001FF
